:100000000C94D5010C943C1D0C94F2010C94F2015B
:100010000C94F2010C94F2010C94F2010C94F20194
:100020000C94F2010C94F2010C9464220C94382389
:100030000C94E61B0C94F2010C94F2010C94F20166
:100040000C94F2010C94F2010C94F2010C94F20164
:100050000C94F2010C945E1C0C94F2010C94F201CD
:100060000C94F2010C94F2010C94F2010C94F20144
:100070000C94F2010C94F2010C94F2010C94F20134
:100080000C94F2010C94F2010C94F2010C94F20124
:100090000C94F2010C94F2010C94F2010C94F20114
:1000A0000C94F2010C94F2010C94F20135001E0044
:1000B0001F002000210022002B0014001A0008005D
:1000C00015001700290004001600070009000A00A7
:1000D000E1001D001B0006001900050000000000E3
:1000E00057002E0021522C0000000000E2004A00C0
:1000F000E000E300230024002500260027002A005A
:100100001C0018000C00120013002D000B000D0045
:100110000E000F00330034001100100036003700CD
:100120003800E500280022522F00300000000000B7
:10013000E70005114D00E6000000000035021E0238
:100140001F02200221022202000000000000000025
:100150002F00000035021E021F022002210222028F
:1001600000004C0000000000000000000000000043
:100170000100010001000100000000000100010079
:1001800001000100230224022502260227022A0080
:10019000000030000000000000002D0223022402B5
:1001A00025022602270234023102310236023702CA
:1001B00031002D02010001000100010000000000DB
:1001C00001000100010001000000000045003A00AC
:1001D0003B003C003D003E00440059005A005B00DB
:1001E0005C005D0000002F003000260227020000A6
:1001F00000000000000000000000000000000000FF
:1002000001000100010001000000000001000100E8
:10021000010001003F0040004100420043002A006D
:100220005E005F006000610062002A005000510023
:1002300052004F000000A900000000000100010072
:100240000000AA0001000100010001000000000000
:100250000100010001000100000000002C03440027
:1002600061006300740079006C002D004D00610096
:100270006E00750066006F0072006D00200028009F
:10028000350078003600290000000E03740073006A
:1002900068006F0072007400000004030904090282
:1002A0003B00020100A0FA09040000010301010063
:1002B0000921110100012244000705810308000102
:1002C00009040100010300000009211101000122BD
:1002D0007B000705820320000112010002000000DC
:1002E000084D44363501000102000105010902A153
:1002F0000185020901A10005091901290815002538
:100300000195087501810205010930093115812522
:100310007F95027508810609381581257F9501753D
:10032000088106050C0A38021581257F950175089C
:100330008106C0C005010980A101850319012AB702
:1003400000150126B700950175108100C0050C0944
:1003500001A101850419012AA002150126A0029518
:100360000175108100C005010906A101050719E00A
:1003700029E7150025019508750181029501750889
:1003800081010507190029FF150026FF0095067554
:100390000881000508190129051500250195057535
:1003A000019102950175039101C011241FBECFEF89
:1003B000DAE0DEBFCDBF11E0A0E0B1E0E0EFFBE4AA
:1003C00002C005900D92A03BB107D9F722E0A0EB47
:1003D000B1E001C01D92AB3CB207E1F70E9472147C
:1003E0000C94B7250C9400008330B8F46C30A8F45A
:1003F000463098F450E096E0699F400D511D11245D
:10040000FA0198E4899FE00DF11D1124EE0FFF1F02
:10041000E455FF4F85919491089581E090E008950F
:100420000E94F401089581E008950E941302089546
:100430000E941302089581E008950E941302089516
:100440000E94130208950E942002089508950895BD
:100450000E942602089508950895A6E0B0E0E3E31F
:10046000F2E00C94132549835A839E833091B7019F
:1004700089819A8131111AC03E81332399F0222358
:1004800089F00E947608182F682F89819A810E942E
:10049000520869817A81812F0E94710F2696E3E0CC
:1004A0000C942F250E946408182FF3CF0E94760821
:1004B00069817A81F1CFFC01262F408151816281CF
:1004C0007381848195810E942D020895CF93DF93DB
:1004D000EC0161E00E945B02BE010E9415028823CC
:1004E00059F061E0CE010E945B02BE010E94180239
:1004F0008170DF91CF91089580E0FACF0F931F9321
:10050000CF93DF93EC0160E00E945B028C01BE019F
:100510000E942702BE01C8010E942802DF91CF91EC
:100520001F910F91089521E030E0A90102C0440F0E
:10053000551F8A95E2F7CA010E9474070895CF9368
:10054000C82F81E090E00C2E02C0880F991F0A94FA
:10055000E2F70E94C30C8C2F0E949302CF91089562
:1005600081E008950E94B00208950E94B0020895AB
:10057000CF93C82F0E9427078C2F0E94B2028C2F86
:100580000E94B5022FEF84E39CE021508040904010
:10059000E1F700C00000CF91089581E00E94B80209
:1005A0000E94821C089580E00E94B8020E94931C61
:1005B00008950F931F93CF93DF938C0161E00E9406
:1005C0005B02EC01B8010E941D02811106C080E0AF
:1005D000DF91CF911F910F910895B801CE010E9434
:1005E00023028823A1F3B801CE010E94DF198823DA
:1005F00071F3B801CE010E941B16882341F3B801A4
:10060000CE010E94F115882311F3B801CE010E949A
:10061000B5108823E1F2F8018581882361F0C330A9
:10062000FCE7DF07E9F058F4C115ECE7DE07A9F0B5
:10063000C130DC47B9F0C8010E941B02C9CFCB35DD
:100640008CE7D807A9F0CC35ECE7DE0771F0CA35A6
:10065000DC4789F70E949E0CEECF0E94CD02B7CFF7
:100660000E94A60C0E94D302B2CF0E94940CE3CF4A
:100670000E94A20CE0CF0E942B020E94A81B0E94A5
:100680005F0308950E9463030E942C020E94AD1B29
:10069000089581E008950895CF93DF93D82F0E94A5
:1006A0004903C82F882319F08D2F0E944B038C2FEC
:1006B000DF91CF91089508950E944C03089580E042
:1006C0000E945C0308950E94281A0E945C0308950A
:1006D000CF930E94281AC82F8091B2018C1779F00D
:1006E000C093B2010E94521C6093B3017093B40195
:1006F0008093B5019093B6018C2F0E945C03CF913B
:100700000895ADE0B0E0E7E8F3E00C9414254887E5
:1007100059876A877B878C879D8791110E94D40BAC
:100720001F8286E0FE013896DE01119601900D923F
:100730008A95E1F78D8181110DC029813A814B8124
:100740005C816D817E818F810E941E0B2D96E2E07F
:100750000C943025CE0101960E9466028111EDCFE6
:10076000F5CFFC012481213021F4808191810E9408
:10077000A8080895662329F00E947C170E944F184C
:1007800008950E94D617FACFCF93C82F8823C9F0B7
:100790008238C9F40E943C1A81FD13C089E30E948B
:1007A000F21A0E94430C2FEF87EE93E02150804015
:1007B0009040E1F700C0000089E30E94FA1A0E940D
:1007C000430CCF9108958338A1F40E943C1A80FD18
:1007D000F8CF83E50E94F21A0E94430C2FEF81EEBE
:1007E00094E0215080409040E1F700C0000083E594
:1007F000E4CF8438A1F40E943C1A82FDE2CF87E462
:100800000E94F21A0E94430C2FEF81EE94E02150D7
:1008100080409040E1F700C0000087E4CECF8CEF2D
:100820008C0F813A98F48C2F0E941D158111C9CF2D
:100830008C2F0E94B71A882329F08C2F0E94FA1A55
:100840000E94430C8C2F0E94F21AB9CF80E28C0FC9
:10085000883048F4C77081E001C0880FCA95EAF774
:100860000E94B70BACCFEBE5EC0FE33040F4F0E0C7
:10087000EB59FE4F808190E00E94581AA2CFE8E524
:10088000EC0FEB3150F4F0E0EE0FFF1FE15DFE4F97
:10089000808191810E947D1A94CF83E38C0F8331F4
:1008A00008F08FCF61E08C2F0E94BA038ACF882393
:1008B00009F456C0823879F40E943C1A81FF50C076
:1008C00089E30E94F21A0E94430C89E30E94FA1AFB
:1008D0000E94430C0895833859F40E943C1A80FF0B
:1008E0003FC083E50E94F21A0E94430C83E5EECFDD
:1008F000843859F40E943C1A82FF32C087E40E9477
:10090000F21A0E94430C87E4E1CF9CEF980F913AD2
:10091000E8F290E2980F983050F4877091E001C0AF
:10092000990F8A95EAF7892F0E94BD0BD1CF9BE5DD
:10093000980F933028F490E080E00E94581A0895B0
:1009400098E5980F9B3128F490E080E00E947D1A92
:10095000089593E3980F933118F460E00E94BA036E
:1009600008951F93CF93DF93182FEB010E94C403C8
:10097000209739F4812F0E945704DF91CF911F9166
:1009800008958FE99FE00197F1F700C000002197DB
:10099000EFCF70E060E0893311F460E570E00E9411
:1009A000B1040895882321F00E94B70B0E94430CE4
:1009B0000895882321F00E94BD0B0E94430C0895E6
:1009C000B0E0A0E0E6EEF4E00C940D256C01D62F2B
:1009D000C72FFC011581068102950F700E94AD0B97
:1009E000E82E8823F9F0E12E1123E1F08C2F807F8F
:1009F000803461F080E28D0F883008F18C2F807E8A
:100A0000803221F4D230D8F00023C9F080919B02CB
:100A100082FF15C082E00E94680C0E94AD0B91E03D
:100A2000E82EE926BC2EB2949FE0B922FBE0FB152C
:100A3000B8F1EB2DF0E0E754FA4D0C94FE24E12CD4
:100A4000F1CF0C2F0F70C07F11F00295007F1123A2
:100A500099F0002359F080E28D0F883010F0D11109
:100A600007C0802F0E94B70B0E94430C8D2F48C0F7
:100A7000802F0E94C70BF8CF8D2F0E9457040023B0
:100A800079F080E28D0F883010F0D11104C0802FF2
:100A90000E94BD0B03C0802F0E94CD0B0E94430C0F
:100AA000EB2DE850FF0B349708F06BC10E94281A19
:100AB0000E945C03CDB7DEB7E9E00C9429252C2F0A
:100AC0002F70F22EC07FC03219F0F29480EFF8221E
:100AD000DD2341F0D130C9F1112309F443C00023D3
:100AE000E9F0C4CF80919B0282FD14C0112359F01C
:100AF000FF2029F08F2D0E94B70B0E94430C80E04D
:100B00000E94C403CDCF80E00E945704FF2041F231
:100B10008F2DBECF112369F0011104C08F2D0E94CB
:100B2000D204BECF013009F0BBCF8F2D0E94EB0B5A
:100B3000B7CF0111B5CF8F2D0E94D9048F2D0E9400
:100B4000F70B8F2D0E94DB0BABCF112321F006306A
:100B500008F0A6CFE3CF053008F0A2CF8F2D0E947A
:100B6000D9049ECF0023D1F3D93349F43FEF87EE68
:100B700093E0315080409040E1F700C000008D2F9D
:100B80000E9457048DCF8C2F86958695837069F0CF
:100B9000813009F085CF8D2F9C2F9370111102C0E9
:100BA00080E090E00E947D1A7BCF8D2F9C2F937068
:100BB000111102C080E090E00E94581A71CF612F9D
:100BC0008D2F0E94BA036CCF8C2F8370A1F5111169
:100BD00067CF4D2F429546954770440F440F2D2FF8
:100BE0002F7030E0042E02C0220F331F0A94E2F768
:100BF00090E080E0D4FF09C08FE090E002C0880F51
:100C0000991F4A95E2F780959095C695C695C37051
:100C1000822B932BC23049F058F4C13019F00E9456
:100C200080073ECF0E9477073BCF0E94890738CFCD
:100C30000E94740735CF8695112311F08C2F817097
:100C4000882309F42DCF4D2F429546954770440FC8
:100C5000440F2D2F2F7030E0042E02C0220F331FBF
:100C60000A94E2F790E080E0D4FF09C08FE090E0C2
:100C700002C0880F991F4A95E2F780959095C69516
:100C8000C695C370822B932BC23049F058F4C13003
:100C900019F00E94EB0704CF0E94E20701CF0E94E7
:100CA000F407FECE0E949807FBCECF70112329F0E7
:100CB0008C2F0E94B0078D2F32CF8D2F0E94D90428
:100CC0008C2F0E94C007ECCED23F41F160F4D03FA0
:100CD000B9F0D13F81F0112309F443C00111C6CE10
:100CE0008C2F8F711FC0D33F01F1D43FA1F78091AA
:100CF0009B0282FD24C08C2F8F71112311F312C02F
:100D0000112341F0053008F0CBCE8C2F8F710E945B
:100D1000D207C6CE063008F0C3CEF7CF8C2F8F7126
:100D20001111CFCF0E94B007BBCE112329F08C2F19
:100D30008F710E94A407B4CE0E949F07B1CE1123E9
:100D400031F063E08C2F8F710E944A0CA9CE81E0B4
:100D50000E94680C023008F4A3CE82E00E94680C66
:100D60009FCE002359F0D93309F009CFEFEFF7EE0A
:100D700023E0E150F0402040E1F7FFCE8C2F8F714F
:100D8000A0CFEE2009F496CE0E94A90B80FD92CE52
:100D9000F60115820E94A30B0E94B007C6010E94B3
:100DA000EE060E94A30B0E94C00784CE0F931F93F0
:100DB000CF93DF93EC01688179818D810E94B30824
:100DC0008C010E94FD070E947307B801CE010E94AA
:100DD000E004DF91CF911F910F910895CF93DF939E
:100DE000EC018C81882399F0CE010E94D9028111F7
:100DF00011C00E94AD0B882351F08D81882339F0FA
:100E000080919B0282FF03C082E00E94680CDF9108
:100E1000CF910895CE010E94D606CE010E947E0297
:100E2000F6CF90E080E00E94581A90E080E00E94A7
:100E30007D1A0E94D40B0E94430C0E946B180E94E2
:100E40004F1808950E94021B0E94110708950E94E6
:100E5000C40B0E942207089592959F70963091F0DE
:100E600058F4925F9F70923058F4803F19F030F43C
:100E7000883E30F481E008959A5FF4CF843FD1F347
:100E800080E00895883EB0F3813FD1F7F3CFFC01B5
:100E90002481222339F0808191810E94A8080E9438
:100EA0002C07089580E00895A6E0B0E0EAE5F7E0B9
:100EB0000C9414252696E2E00C943025A7E0B0E0CF
:100EC000E4E6F7E00C9414252796E2E00C94302534
:100ED00008950E94680708950E9469079093DF01B2
:100EE0008093DE01089508950E946C070895209173
:100EF000DE013091DF01822B932B0E946C07089555
:100F00002091DE013091DF01822393230E946C0740
:100F100008952091DE013091DF01822793270E94FE
:100F20006C0708950E94680708950E94920708952B
:100F30000E9495079093DD018093DC01089590E075
:100F400080E00E949807089521E030E0A90102C0E6
:100F5000440F551F8A95E2F7CA010E949807089529
:100F600021E030E002C0220F331F8A95E2F7809122
:100F7000DC019091DD01822B932B0E94980708954C
:100F800021E030E002C0220F331F8A95E2F720955E
:100F900030958091DC019091DD01822393230E94A2
:100FA0009807089521E030E002C0220F331F8A9590
:100FB000E2F78091DC019091DD01822793270E9466
:100FC000980708952091DC013091DD01822B932B4D
:100FD0000E94980708952091DC013091DD01822361
:100FE00093230E94980708952091DC013091DD0140
:100FF000822793270E94980708950895262F277027
:1010000091E001C0990F2A95EAF723E0769567955C
:101010002A95E1F7660F771F660F771FFA01E60F33
:10102000F71F50E040E0682F70E08191DF011197D9
:101030009B01042E02C0369527950A94E2F7217091
:1010400021952827292328272C934F5F5F4F443071
:10105000510559F70895A82FA77023E09695879515
:101060002A95E1F7880F991F880F991FFB01E80F58
:10107000F91F50E040E080E0219130E00A2E02C0EC
:10108000369527950A94E2F721703327042E01C084
:10109000220F0A94EAF7822B4F5F5F4F44305105CD
:1010A00059F70895262F9C3070F4863060F4682F2D
:1010B00070E086E0989F600D711D112448EB51E0AF
:1010C000822F0E94FE070895292F9C3068F48630F5
:1010D00058F490E068EB71E036E0239F800D911D9D
:1010E00011240E942B08089580E00895B0E0A0E04C
:1010F000ECE7F8E00C940D257C010091DC011091E7
:10110000DD018091DE019091DF01082B192BCFE0EA
:10111000D0E0CC24C394D12CBC2EC6010C2E02C02E
:10112000880F991F0A94E2F780239123892B49F4B1
:10113000219790F7B12C8B2DCDB7DEB7E9E00C9459
:101140002925B7018C2F0E947D0F019789F3F3CFDA
:10115000CF93DF93EC010E947608BE010E947D0FC1
:10116000DF91CF9108951F93CF93DF93EB0190917F
:10117000B701992339F0CB010E94A808DF91CF91E4
:101180001F910895882369F0CB010E947608182FDB
:10119000682FCE010E945208BE01812F0E947D0F50
:1011A000EDCFCB010E946408182FF6CF1F93CF9389
:1011B000DF93C091E00117E08091E1018C1304C03E
:1011C000DF91CF911F910895D0E01C9FF0011D9FEA
:1011D000F00D1124EE51FE4F208131814281538167
:1011E0006481758186810E945E072196C770E4CF75
:1011F00020911A0230911B0240911C0250911D0255
:1012000060911E0270911F02809120020E945E0771
:101210000895CF93DF9380912002807F09F04DC025
:1012200080911F02882309F448C0E091E0015091A9
:10123000E101C0911B02D0911A0260911C027091D1
:101240001D0247E05E17C9F18E2F90E0E49FF00188
:101250001124EE51FE4F2481222391F1489FF00189
:10126000499FF00D1124DF01AE51BE4F11962C9114
:1012700011972C1325C02C912D1322C015962C915B
:10128000159721111DC012962D913C91261B370BED
:10129000283C3105A8F4809120028F7080618093F2
:1012A0002002E851FE4F80818F70806180838AE147
:1012B00092E00E94EE060E94D608DF91CF91089539
:1012C000FC013196E770BECF482F2091E00190914C
:1012D000E10157E0291302C080E0089530E0529FF9
:1012E000F001539FF00D1124EE51FE4F81816813E0
:1012F00006C08081481303C085818111EECF2F5F26
:101300003F4F2770E7CFA4E1B0E0E9E8F9E00C94A3
:101310000A258C0186E0F801DE011F9601900D92EE
:101320008A95E1F7D80114968C9114971596EC9054
:1013300015979AE1A92E92E0B92E90911E02911173
:101340001FC08823D1F0EE20A9F0C8010E944707F2
:10135000F82E882379F087E0F801D50101900D92ED
:101360008A95E1F7C5010E94B1030E9409090E9414
:10137000F8083DC0C8010E94EE06FF24F39437C070
:10138000F801C080D18082809380F0901F0220916C
:101390001C0230911D02A401421B530BFF2009F4D3
:1013A000F6C0483C510508F0A5C0882301F1909192
:1013B0001B0280912002282F207F09F067C09D1119
:1013C0001BC090911A02C91217C0E11059C08F704A
:1013D0008061809320020E94F8088AE192E00E94D6
:1013E000EE0680912002D80116968C93F12C8F2D59
:1013F0006496ECE00C942625E11042C06D2D8C2DF6
:101400000E946409E82E882371F08AE192E00E942C
:10141000EE0687E0EAE1F2E0DF011D928A95E9F746
:101420000E94F808E3CFCF86D88A8F8598890E94DA
:10143000A808292F22952F70243058F49F7022304D
:1014400088F0992399F0F8019681907F79F4FE2C29
:10145000CECF2A5F2F70223068F0C8010E94EE06BE
:10146000EF2CF5CF992311F0882389F3805E883023
:1014700070F3F3CF803F58F3815F833070F7E7CF8D
:1014800080912002816080932002B0CF9D1107C01F
:1014900090911A02C91203C0EE2009F49CC0C80141
:1014A0000E944707882309F465CFEE2009F462CF34
:1014B00080912002803288F020911A0230911B0224
:1014C000398728879B868A8690911E029C871D8675
:1014D0008E87CE0108960E94EE0687E0F801AAE109
:1014E000B2E001900D928A95E1F70E9409090E94ED
:1014F000F80843CF90912002292F207F91F4682D86
:101500009A8A898AA6017A899E2D0E9454078AE1C7
:1015100092E00E94EE0687E0F50111928A95E9F7C4
:101520007FCF882309F463CF80911B028D1111C0F6
:1015300080911A02C8120DC0E1100BC016969C9340
:10154000C8010E94EE0687E0F50111928A95E9F73D
:101550004ECFC8010E944707882309F40BCFEE2025
:1015600009F408CF80912002803208F4B6CF209190
:101570001A0230911B023A8329839C828B829091BC
:101580001E029D831E828F83CE010196A4CF483C0C
:10159000510508F045C0882309F4EFCEFE2CEE205B
:1015A00009F4E8CE80911B028D112CC080911A02A3
:1015B000C81228C08091200280FD1BC0982F907F08
:1015C000C1F016968C931697903F39F0982F907F24
:1015D000905F8F70892B16968C93C8010E94EE063F
:1015E00087E0F801AAE1B2E001900D928A95E1F757
:1015F000BECE87E0F801AAE1B2E001900D928A9593
:10160000E1F7F5CEC8010E944707811166CF8091AE
:101610002002816080932002C8010E94EE06E7CE7E
:10162000682D9A8A898AA6017A899E2D0E9454077C
:1016300087E0F50111928A95E9F799CEAEE0B0E026
:10164000E4E2FBE00C941325288739874A875B87FF
:101650006C877D878E87CE0108960E948309882338
:10166000B1F06C85662341F0288539854A855B8514
:101670007D858E850E945E0717E08091E001909144
:10168000E10189133DC02E96E3E00C942F2587E0FD
:10169000FE013896DE01119601900D928A95E1F7D0
:1016A0008C85882349F32091E10130E0C90101963E
:1016B000877099274091E0014817190699F097E043
:1016C000929FD001939FB00D1124AE51BE4FFE01E9
:1016D000319601900D929A95E1F78093E1010E9475
:1016E000D608CACF0E9427071092E1011092E001AC
:1016F00087E0EAE1F2E0DF011D928A95E9F7BCCFCD
:10170000819FC00111248E519E4F0E94830988231E
:1017100009F4B9CFE091E0011E9FF0011124EE51D0
:10172000FE4F2081318142815381648175818681A0
:101730000E945E078091E00190E0019687709927F2
:101740008093E0019ACF80912902869586958695AF
:1017500008958091290287700895909129029770C9
:1017600081E009F480E00895809135020895909118
:101770003502892B8093350208958095909135022A
:101780009823909335020895109235020895909110
:101790003402892B8093340208958095909134020D
:1017A0009823909334020895109234020895089576
:1017B0000E94D70B089590912A02292F282331F0F7
:1017C0008095892380932A020E94D80B089508955A
:1017D0000E94E70B089590912B02292F28232817A8
:1017E00029F0982B90932B020E94E80B089590917A
:1017F0002B02292F282331F08095892380932B02F7
:101800000E94E80B089580912B02882329F0109202
:101810002B0280E00E94E80B08950F931F93CF9353
:10182000DF930091000110910101C0913502809178
:101830003402C82B80912B02882331F0C82B0E94E0
:10184000A21A81110E94030CF801C083C09100010B
:10185000D091010148E050E061E272E0CE010E94C7
:101860004F25892B59F088E0FE01A1E2B2E00190FA
:101870000D928A95E1F7CE010E943F1ADF91CF9138
:101880001F910F9108950E940D0C089508950E94D4
:10189000460C089590919B0292FF11C098E0899F99
:1018A00090011124622B609329020E94B00780915D
:1018B00029028695869586950E94470C08950E9478
:1018C000B00708951092290280E00E94470C089505
:1018D000909129028095892380932902282F2770CF
:1018E00069F4891759F090919B0292FF07C0869581
:1018F000869586950E94C0070E94620C089590917B
:101900009B0292FB222720F9281769F080FB92F9AD
:1019100090939B0280919A0290919B020E94CE0C20
:1019200082E00E94680C089580919B0282FB8827C8
:1019300080F991E089270E947F0C089581E00E9440
:101940007F0C089580E00E947F0C08956FEF7FEF79
:1019500090E080E00E94A125089590E080E00E9440
:101960006D2521E0853E9E4F09F020E0822F0895ED
:1019700082E090E00E946525089583E090E00E9457
:10198000652590E00895682F83E090E00E9483250C
:10199000089584E090E00E946D250895BC0184E0E4
:1019A00090E00E94A1250895AB01BC018FE090E07A
:1019B0000E9495250895AB01BC0183E190E00E944F
:1019C0009525089560E070E0CB010E94DB0C08953E
:1019D00060E070E0CB010E94D40C0E94E20C0895FC
:1019E000A8E0B0E0E6EFFCE00C94142565EE7EEF95
:1019F00090E080E00E94A12560E082E090E00E94FB
:101A0000832581E090E09093DF018093DE010E94C6
:101A1000C30C60E074E184E090E00E94A12560E0E6
:101A200086E090E00E94832560E087E090E00E94DD
:101A3000832540E050E0BA0188E090E00E949525BF
:101A400060E083E290E00E94832560E08CE090E01B
:101A50000E94832560E08DE090E00E94832519823A
:101A60001A821B821C821D821E821F82188648E0F9
:101A700050E067E170E0CE0101960E94732540E0DE
:101A800050E0BA018FE190E00E9495250E94E80C99
:101A90002896E2E00C9430250E94F00C0895682FFF
:101AA0008EE090E00E9483250895A6E0B0E0EBE58B
:101AB000FDE00C9412250E94461C8C018091360298
:101AC000909137028017910781F019821A820E9443
:101AD000461C682F49815A81792F80E090E00E944E
:101AE000810310933702009336022696E4E00C94AB
:101AF0002E250E94991060934802709349028093AA
:101B00004A0290934B026093440270934502809383
:101B10004602909347020895089508950E948C0DFF
:101B2000089508950E94910D0E948E0D08950895C4
:101B30000E94970D089508950E949B0D0E94980D94
:101B4000089581E0089583EB90E10E9487140E943C
:101B50008D0D0E94920D08950E9486120895089599
:101B6000089508950E94AF0D0E94B00D0E94B10D1E
:101B700008950E94AD0C811102C00E944C0D0E947C
:101B8000B80C80934C020E94C90C90939B028093E6
:101B90009A020E94BD0C0E9474078091DC01909112
:101BA000DD010E94950708950E943D1C0E9473105C
:101BB0000E948C120E94CF110E94B90D0E945B03FB
:101BC0000E94D9150E949E120E949C0D0895A6E0C5
:101BD000B0E0EDEEFDE00C940B250E94A10D81110B
:101BE0000CC00E94550D0E9486120E948D180E9402
:101BF00068032696EBE00C9427250E94F21188E3F7
:101C0000A82E82E0B82E750110E0F70101917F0146
:101C1000812F0E94CF101F5F1C3009F441C00817AC
:101C2000A1F380914C0281FD0E94D5100E94AC0D61
:101C3000C82E10E099249394812F0E94CF10082F72
:101C4000F50181915F01081729F1D02ED826F12CDA
:101C5000EE24E3948D2D8E21A9F0CC2099F0F98209
:101C60001A830E94461C9C838B839D8291E0802F67
:101C70008E2109F490E049815A816B817C818D81AC
:101C80000E948103F394EE0CF6E0FF12E3CFF5011E
:101C9000319700831F5F1C3079F60E94790DA3CF26
:101CA0000813BFCF9ECF1F93CF93DF930E94820F65
:101CB000EC01C11580E5D807F0F5C11580E4D8071F
:101CC00008F09CC0C03ED10520F5CD3CD10508F000
:101CD00082C0C83AD10578F4C53AD10508F073C07E
:101CE000C130D10519F1209709F1C430D105F0F4C4
:101CF000D0E0C0E01BC0C33CD105D0F7C85AD0E04B
:101D0000CC0FDD1FC859DE4F0990D881C02DD46497
:101D10000DC0C11580E2D80708F0D1C0C11581E01F
:101D2000D80708F05AC0C83ED10510F7CE01DF91A0
:101D3000CF911F910895C03682E5D80718F5C034B9
:101D400082E5D80708F06BC0C03282E5D80708F0FA
:101D50005FC0C11582E5D80708F497C02C2F2695DF
:101D6000269580E2289F900111248C2F8370C1E07A
:101D7000D0E002C0CC0FDD1F8A95E2F7C22BD32B37
:101D8000DD68D4CFC03A82E5D80760F4C03882E578
:101D9000D80708F459C0CF71D0E0DC2FCC27C46F2E
:101DA000D06AC4CFC03C82E5D80708F462C0C03E08
:101DB00082E5D80708F09CCFDC2FCC27CC27DF7139
:101DC000C06FD06AB3CFC55AD0E0C256DE4FC881CB
:101DD000D0E0D064ABCFD065A9CF8D2F0E94241066
:101DE000182FCE0199270E94820FC12FD0E0DC2F3F
:101DF000CC27CC27DF71C82BD92B98CFCE019927C0
:101E00000E94820FCC27DF70C82BD92BD06A8ECFCF
:101E1000CF71D0E0DC2FCC27C16FD06A87CF2C2FB9
:101E200026952695277080E2289F900111248C2FFB
:101E30008370C1E0D0E002C0CC0FDD1F8A95E2F7CD
:101E4000C22BD32BDC6872CF2C2F269526952770BA
:101E500080E2289F900111248C2F8370C1E0D0E094
:101E600002C0CC0FDD1F8A95E2F7C22BD32BDA68B4
:101E70005DCF8C2F8F710E942410C82FD0E0DC2FF3
:101E8000CC27CC27DF71D06251CF8C2F8F710E946D
:101E9000241055E0D695C7955A95E1F7CF70D0E05C
:101EA000DC2FCC27282F30E084FF05C044E0220F30
:101EB000331F4A95E1F7C22BD32BD06937CF8D2F33
:101EC0008F710E942410182FCE0199270E94820F33
:101ED000C12FD0E0DC2FCC27CC27DF71C82BD92B2A
:101EE000D2CF462F7C3030F4663020F4672F0E942A
:101EF0001002089590E080E008950E94710F0E9402
:101F0000530E089582389105B9F1B0F481339105EB
:101F100009F47DC048F48932910509F46DC08A3214
:101F2000910509F47BC008958533910509F45FC0DC
:101F30008933910509F10895833E9105D9F138F46B
:101F4000803E910529F1823E910579F10895863E02
:101F50009105D9F1873E910509F43EC0843E910573
:101F600041F520919B0221FF24C080919A0284FDBB
:101F700019C087EE90E0089520919A02237009F02D
:101F80005AC020919B0223FF14C089E290E008957B
:101F900020919A0220FD38C030919B0230FF09C089
:101FA00024FF43C090E080E0089520919A0222FD32
:101FB000F7CF089520919A0222FD3AC030919B02FA
:101FC00030FD39C024FFF5CFEDCF20919A0223FFD9
:101FD000F0CF24FDE7CFCDCF20919A0223FD2EC074
:101FE00030919B0231FFEECF84EE90E00895209176
:101FF0009A0225FFDECFC9CF20919A0225FD21C08C
:1020000020919B0223FFD5CF89E390E0D2CF20918E
:102010009A0226FFCECF8AE290E0089520919A029C
:1020200026FFC7CF81E390E0089583EE90E0089506
:1020300082EE90E0089580EE90E0089586EE90E0C4
:10204000089585E390E0089590919A0292FF10C060
:1020500041E0282F2471243009F040E031E0282F9E
:102060002871283009F030E0431711F02CE0822766
:1020700093FF10C041E0282F2471243109F040E083
:1020800031E0282F2871283109F030E0431711F092
:102090002CE0822730919B0230FF10C051E0282FA6
:1020A0002171213009F050E041E0282F28712830BB
:1020B00009F040E0541711F029E0822731FF10C0E9
:1020C00041E0282F2171213109F040E031E0282F33
:1020D0002871283109F030E0431711F029E08227F8
:1020E00094FD877E089510929C0210929D0210929A
:1020F0009E0210929F020895CF92DF92EF92FF927C
:102100006B017C010E94861281110EC00E94521C3C
:10211000C61AD70AE80AF90AC0929C02D0929D0218
:10212000E0929E02F0929F02FF90EF90DF90CF909E
:1021300008950F931F930E948612882329F00E940E
:10214000521C1F910F9108950E94521C00919C02F5
:1021500010919D0220919E0230919F02600F711F8D
:10216000821F931FEECF80E00895CF939C01205EE5
:102170003245C1E02032310538F4FB01C581C1117F
:1021800003C08F710E949F028C2FCF9108950895F4
:102190000E94C710089508950E94CB100895E82F5B
:1021A000F0E0E355FD4F80810895089580EA8A9517
:1021B000F1F7089500C008950E94D610089508957B
:1021C0000E94DF100895A6E0B0E0E9EEF0E10C9483
:1021D00010250E948612F82E6091B902882309F416
:1021E00040C086E0E82E8E010F5F1F4FF8018E2D54
:1021F00011928A95E9F7862F90E0B80183559D4F9B
:102200000E94AC128823B9F08091A00290E046E0D1
:1022100050E0B80183559D4F0E944F2521E0209347
:102220004D02892B91F4F12C0E94CC108F2D269613
:10223000E6E00C942C2580914D028823A1F3F8014F
:102240001192EA94E9F710924D02A091A002B0E039
:10225000A355BD4F86E0F80101900D928A95E1F7F4
:10226000E3CF70E063557D4F8091A00290E08355ED
:102270009D4F0E9433130E94E010D8CFF894E82FAE
:10228000E295EF70F0E031A1282F2F7081E090E00F
:1022900001C0880F2A95EAF7982F9095932391A370
:1022A00092A1892B82A378940895CF93DF93C7EAF4
:1022B000D1E089918F3F11F00E943E1181E0CD3A2B
:1022C000D807B9F7C1EAD1E089918F3F11F00E9498
:1022D0003E1181E0C73AD807B9F7DF91CF91089551
:1022E000B0E0A0E0E6E7F1E10C940E25EC01D62E7B
:1022F000062F10E0C80189559E4F7C01FC018081AA
:102300008F3F09F445C0F894E82FE295EF70F0E0B4
:1023100091A18F7021E030E001C0220F8A95EAF789
:10232000892F822B81A382A12095282322A3789430
:102330000E94DA10E1EAF1E047EA51E031E0C12C15
:1023400021912F3F51F1A22FA295AF70B0E090964E
:102350008C9190E02F7002C0959587952A95E2F7B1
:1023600080FD1BC0832FC82A330F4E175F0741F72C
:10237000F70180818F3F11F00E943E1161E0C11092
:1023800001C060E08D2D0E94DC10C00FD11FC882FB
:10239000CDB7DEB7E8E00C942A2580E0E4CF809149
:1023A00002018091020196E0811190E09093B902C0
:1023B00086E0891B8093A0020E9455118CE0EDEA13
:1023C000F2E0DF01982F1D929A95E9F7E1EAF2E039
:1023D000DF011D928A95E9F786E00E9430120E9483
:1023E000C8100895ACE0B0E0E8EFF1E10C941125DD
:1023F0008E010F5F1F4F8CE0F80111928A95E9F76B
:10240000F12C6F2DC8010E947011F394F6E0FF12B9
:10241000F8CF4CE050E0B80181EA92E00E944F25ED
:1024200021E0009709F420E0892B41F08CE0F801CD
:10243000A1EAB2E001900D928A95E1F76091B902AC
:1024400070E063557D4F46E081EA92E00E943112D0
:10245000182F0E94E310812B2C96E5E00C942D257B
:102460000895B0E0A0E0E7E3F2E10C940E256C01E2
:102470007B01042FC22F222379F081E08093500248
:102480000E94461C90934F0280934E0280E0CDB78D
:10249000DEB7E8E00C942A25D0915002DD23B1F399
:1024A00080914E0290914F020E94C41B059770F3D9
:1024B00010E0A801B601C7010E944F25892B31F019
:1024C000A801B601C7010E945C25CD2F10925002D1
:1024D0008C2FDDCF1F93CF93DF93C8ECD0E00E9409
:1024E000E424182F81110AC08FE39CE90197F1F7CA
:1024F00000C00000219799F70E94DF24812FDF910F
:10250000CF911F91089580915402089580915302B4
:1025100008950E94861208950E946A1280935302C1
:102520000E948912809354020E94831280930201B8
:102530000E94861281110E94E21208950E94861262
:10254000811102C00E94E512089581E09091550228
:102550009A3008F080E008950F931F93CF93DF9394
:10256000EC018B01809155028A30B8F4B801CE019C
:102570000E943013C82F811122C0809155028F3FD5
:10258000B9F40E94461C90935202809351028C2F02
:10259000DF91CF911F910F910895809151029091F9
:1025A00052020E94C41B843F914000F7C0E0EFCF6D
:1025B0008F5F809355028A3020F7C1E0E8CF1092F8
:1025C0005502E5CF0E94F61C08950E94F91C08955B
:1025D000B0E0A0E0EEEEF2E10C940F257901C82FF7
:1025E000880FDD0B41155105A9F0FE0193E0EE0FB8
:1025F000FF1F9A95E1F7ED5FFE4F818192818A5A24
:102600009D4F208130E04217530708F49A01A90139
:102610000E945C25CE010E94E21DD82E8823D1F0B5
:1026200001151105B9F083E0CC0FDD1F8A95E1F7A4
:10263000FE01ED5FFE4F438150E00417150708F4DB
:10264000A801CD5FDE4F6C817D816A5A7D4FC70145
:102650000E945C258D2DCDB7DEB7E7E00C942B25CD
:102660000E94221408950E9439140895A4E0B0E055
:10267000ECE3F3E10C94122560916F02709170020B
:1026800080917102909172020E94CE1B11E064361B
:1026900071058105910518F10E9499106E5F7F4FB9
:1026A0008F4F9F4F69837A838B839C8310E000E078
:1026B00030E020E044E050E0BE016F5F7F4F82E0F9
:1026C0000E94E812182F882351F00E94521C609338
:1026D0006F02709370028093710290937202812F47
:1026E0002496E4E00C942E25B0E0A0E0EAE7F3E1C4
:1026F0000C940C257C015B016A010E94A51201E08B
:1027000010E0882311F00AE010E0C1E0D0E0B5014C
:10271000C701F6010995811104C021960C171D0708
:102720002CF4CDB7DEB7EAE00C942825CC9F9001BD
:10273000CD9F300D300D112490E080E045E34A95A7
:10274000F1F70000019682179307C1F7E0CFA7E0E9
:10275000B0E0EDEAF3E10C940C257B01C090AD01F3
:10276000D090AE0101E010E09E01295F3F4F50E0A4
:1027700040E070E060E080E00E94E812182F8823BB
:1027800009F448C056018FEFA81AB80A60916B028D
:1027900070916C0280916D0290916E020E94CE1B2E
:1027A000643671058105910568F106E010E09E012F
:1027B0002F5F3F4F50E040E070E060E081E00E941A
:1027C000E812D82E66E070E0C5010E94DA1511E02B
:1027D0009F81981310E01D2141F10E94521C6093CB
:1027E0006B0270936C0280936D0290936E0286E090
:1027F000FE013196A5E6B2E001900D928A95E1F7CF
:1028000011E013C066E070E0C5010E94DA159F81F7
:102810008913CBCF86E0F6013196DE011196019047
:102820000D928A95E1F71111E2CF86E0E5E6F2E03C
:10283000D70101900D928A95E1F7812F2796EAE062
:102840000C9428250F931F93CF93DF93EC018B01FA
:1028500047EA53E10E947413882331F046E353E1C1
:10286000B801CE010E947413DF91CF911F910F9197
:1028700008950F931F93CF93DF93C091AD01D09133
:10288000AE01CE01019626E0FB01DC0101900D9224
:102890002A95E1F766E070E00E94DA1588836F817F
:1028A000788589859A850091610210916202209154
:1028B000630230916402601771078207930751F039
:1028C000609361027093620280936302909364024A
:1028D0000E947C10DF91CF911F910F9108950E946B
:1028E000E70D08950E94DF1B0E949B1F0E94A30D0D
:1028F0000E94B51F0E94D40D0E94C21F0E94C71FD4
:102900000E946F140E94E11F0E94B20DF7CF9093B6
:10291000B1018093B00108958B3109F465C040F591
:102920008B3071F078F4863009F447C020F485309C
:1029300059F180E00895873009F448C08830C9F71C
:1029400081E00895803109F45DC068F48E3089F724
:1029500090914C02892F8B7F92FF846080934C0270
:1029600082FD4CC0EDCF863159F3893149F3E1CF77
:102970008A3201F160F48732B1F020F48E31C8F26E
:102980008D514CC08932A9F60E94CD02D9CF833433
:1029900040F48A3308F041C0853329F0883381F24E
:1029A000C8CF833431F681E090E00E9474070E9422
:1029B0002707C6CF0E944C0DC3CF80914C02807F69
:1029C00080934C0281E080937602089590914C02AE
:1029D000892F8E7F90FF816080934C0280FDB0CF65
:1029E000817F80934C02ACCF90914C02892F8D7FD8
:1029F00091FF826080934C0281FFA2CF80914C02B4
:102A00008160EFCF90914C02892F877F93FF886080
:102A100080934C0283FDF2CF93CF895321E030E0C5
:102A2000A90102C0440F551F8A95E2F7CA01BDCF24
:102A300080E008950E9418150895CF93C82F8091C3
:102A400076028130B9F0882331F08230A1F1109202
:102A5000760280E00DC00E94B40B8232D1F78C2F39
:102A60000E94181581111BC08C2F0E948C1481703C
:102A7000CF9108950E94B40B823289F38C2F0E946B
:102A80001A1581110AC0C43199F060F4CB3029F0D5
:102A9000C03169F782E08093760281E0E8CF81E07F
:102AA00090E0E5CFC93221F0C833B9F380E0DFCF41
:102AB00010927602FBCFC93209F43FC0E8F4C4316A
:102AC000E1F128F4C73009F45BC081E0D1CF82EE98
:102AD0008C0F8A30D0F7CD51C0937502C33009F402
:102AE00046C0B0F5C13009F43FC080E291E0C23089
:102AF000B1F110927502E9CFC03509F452C0B8F4B3
:102B00008AE0CF3411F7E0917302F09174023097AC
:102B1000E1F22081082E000C990B820F911D8F3F4E
:102B2000910509F00CF441C08FEF8083CECFC13501
:102B3000D1F181E0C23539F39BCF809175028823B2
:102B400021F2109275021092740210927302BDCF9E
:102B5000C53099F078F08BE191E0C63051F6909352
:102B6000740280937302B1CF89E792E0F8CF8FE1CE
:102B700091E0F5CF8EE191E0F2CF8CE191E0EFCFE3
:102B80001092790284E180932001C0931F018CE3AD
:102B900080931E0188E080931C0188E280931B01D2
:102BA00094CF86EFB0CF8FEFAECF97FFBECF10821E
:102BB0008CCF0895FC01680F791F8FEF91E36E179A
:102BC0007F0709F408952191822728E030E087FFEC
:102BD00006C0880F892721503109C9F7F0CF880F27
:102BE000FACFCF93DF93EB0186319C4711F50E941A
:102BF000B40B9D81992399F08A7A91E009F490E0D1
:102C000090937702811109C089E20E94F21A0E9412
:102C1000430C80E0DF91CF91089585E3F6CF80915A
:102C20007702811104C089E20E94FA1AF0CF85E38D
:102C3000FBCF81E0EFCFCF93DF93EC01FB018581E8
:102C4000882309F4D2C09E0130572332310508F0A1
:102C5000B2C00E94C90C90939B0280939A02FE011D
:102C6000E150F047E232F10520F4EB53FA4D0C94B9
:102C7000FE2480919A02816080939A0293C0809191
:102C80009B02886080939B028DC080919A02826033
:102C9000F3CF80919A028460EFCF80919A0288608E
:102CA000EBCF80919B028160EDCF80919B0282608F
:102CB000E9CF80919A028061DFCF80919A02806291
:102CC000DBCF80919A028064D7CF0E942707809142
:102CD0009A028068D1CF80919A028C60CDCF80918A
:102CE0009B028360CFCF80919A028E7FC5CF809167
:102CF0009B02877FC7CF80919A028D7FBDCF809145
:102D00009A028B7FB9CF80919A02877FB5CF80914D
:102D10009B028E7FB7CF80919B028D7FB3CF809136
:102D20009A028F7EA9CF80919A028F7DA5CF809144
:102D30009A028F7BA1CF0E94270780919A028F77FA
:102D40009BCF80919A02837F97CF80919B028C7F4B
:102D500099CF80919A0282FB992790F921E09227DE
:102D600090FB82F990FB83F987CF80919B02982F8B
:102D7000909591708E7F892B90FB81F983CF9091F4
:102D80009A02892F8F7B96FF806476CF0E94270757
:102D900090919A02892F97FB87F980586DCF81E037
:102DA0000E944F0D80919A0290919B020E94CE0C3E
:102DB0000E94270780E0DF91CF91089580E0F0CF57
:102DC00090919A02892F8F7E94FF806155CF9091C8
:102DD0009A02892F8E7F90FF81604ECF90919B0247
:102DE000892F877F93FF88604DCF81E0E4CF282F24
:102DF00035EB2303C001112497FF04C080589109CB
:102E0000892F089580589F4FFBCF8091800280FFCB
:102E10000DC060911F0170E0660F771F603871056B
:102E200070F56115710569F1862F089581FF07C05E
:102E300060911F0184E0689FB0011124EFCF609181
:102E40001F0182FD0AC080917F028823A9F0209192
:102E50001E0160911F01821710F088E0ECCF869F61
:102E6000C001112433E0880F991F3A95E1F7622FD2
:102E700070E00E94EA24D2CF68E070E0D5CF8FE7FF
:102E8000089581E008958091800280FF0CC06091D8
:102E90001C0170E0759567957595679561157105CD
:102EA00049F1862F089581FF06C060911C0170E0F2
:102EB00075956795F3CF60911C0182FD0BC09091D1
:102EC0007E029923A1F060911B0180911C0196174D
:102ED00038F0682F70E06038710500F38FE70895CF
:102EE000899FC001112470E00E94EA24F4CF61E0C0
:102EF00070E0D7CF81E008958D3C31F40E94051732
:102F000081958093840208958E3C19F40E940517E0
:102F1000F8CF8F3C31F40E9405178195809383028E
:102F20000895803D19F40E940517F8CF893D29F4D2
:102F30000E9443178093850208958A3D21F40E94E0
:102F400043178195F7CF8B3D31F40E94431781954C
:102F50008093860208958C3D19F40E944317F8CFA0
:102F60009FE2980F983070F4815D990B21E030E07A
:102F700001C0220F8A95EAF780918202822B80930A
:102F8000820208958D3D31F48091800281608093AA
:102F9000800208958E3D21F4809180028260F7CFF7
:102FA0008F3DB9F7809180028460F1CF4091830218
:102FB0008D3C59F48091840287FF0DC010928402E9
:102FC00041110BC010927F0208C08E3C81F48091A9
:102FD000840218169CF3442381F08091850290911D
:102FE0008602892B09F05AC010927E0208958F3C08
:102FF00049F447FFF0CF109283028091840281113F
:10300000ECCFE0CF803D19F41416ACF3E4CF9091EF
:103010008502893D29F41916F4F610928502DBCF5A
:103020008A3D19F497FFD7CFF8CF909186028B3D58
:1030300029F497FFD0CF10928602CDCF8C3D19F4A2
:103040001916CCF3C8CF9FE2980F983090F4815DA9
:10305000990B21E030E0B90102C0660F771F8A9515
:10306000E2F7CB01809590918202892380938202BE
:10307000B2CF8D3D31F4809180028E7F80938002AB
:10308000AACF8E3D21F4809180028D7FF7CF8F3DB6
:1030900009F0A1CF809180028B7FF0CF08950E942C
:1030A000461C9C019091830280918402982B21F010
:1030B00030937D0220937C0290918502809186025C
:1030C000982B21F030937B0220937A0281E892E0E2
:1030D0000E944A1A089586E0E1E8F2E0DF011D92BD
:1030E0008A95E9F710927F0210927E021092800278
:1030F0000895FC01828181110EC0838181110BC072
:103100008481811108C091E08581811101C090E026
:10311000892F8170089581E0FCCFA6E0B0E0E3E95B
:10312000F8E10C94132586E0E1E8F2E0DE01119667
:1031300001900D928A95E1F7109283021092840219
:1031400010928502109286028B819C81892B89F0D6
:1031500080917C0290917D020E94C41BAC019091F1
:103160007F029923C9F1809120018417150608F484
:1031700040C08D819E81892B91F080917A0290913F
:103180007B020E94C41BAC0190917E02992309F43A
:103190006AC080911D018417150608F472C0BE0133
:1031A0006F5F7F4F81E892E00E940D1B811105C087
:1031B00081E892E00E94791881110E944F1886E000
:1031C000FE013196A1E8B2E001900D928A95E1F7F7
:1031D0002696E3E00C942F25209179028AE0289F1F
:1031E000900111242417350720F69F5F90937F02EA
:1031F00002C09F3FD1F71B81112359F00E94051790
:103200009FEF11160CF491E0899F802D112480937B
:1032100083021C81112359F00E9405179FEF11169C
:103220000CF491E0899F802D112480938402809179
:103230008302882309F49DCF10918402112309F49D
:1032400098CF0E94F716882351F080938302812F34
:103250000E94F716882329F0809384028ACF81E0A8
:10326000F4CF81E0F9CF209178028AE0289F900185
:1032700011242417350708F092CF9F5F90937E02A8
:1032800002C09F3FD1F71D81112359F00E944317BF
:103290009FEF11160CF491E0899F802D11248093EB
:1032A00085021E81112359F00E9443179FEF1116CA
:1032B0000CF491E0899F802D1124809386028091E7
:1032C0008502882309F46BCF10918602112309F43B
:1032D00066CF0E94F716882351F080938502812FD4
:1032E0000E94F716882329F08093860258CF81E048
:1032F000F4CF81E0F9CF0F931F93CF93DF93C42FC7
:10330000D22FFC0185818823C9F0409389020E9455
:10331000461C909388028093870280E28C0F88304D
:1033200040F4C77081E001C0880FCA95EAF70E9497
:10333000D204DF91CF911F910F91089510918902CE
:10334000141332C080918702909188020E94C41B9E
:10335000883C910548F5C0E2CD0F1D17B9F080E219
:10336000810F883040F4177081E001C0880F1A95F2
:10337000EAF70E94D904C83048F481E09D2F977085
:1033800001C0880F9A95EAF70E94D204802F0E940C
:10339000C904C83070F6D77081E001C0880FDA9593
:1033A000EAF70E94D904C5CF80E28C0F883008F676
:1033B000C77081E001C0880FCA95EAF7F2CF0F937A
:1033C000DB0188519C4787309105A0F5FC01E9514C
:1033D000FA4D0C94FE2406E221EE41EE6AE17CE710
:1033E000CD010E947B1980E00F91089507E225EE40
:1033F00045EE6BE17CE7F4CF06E221EE40EE68E1BA
:103400007CE7EECF07E225EE44EE69E17CE7E8CF0A
:1034100006E221EE42EE6CE17CE7E2CF07E225EE28
:1034200046EE6DE17CE7DCCF08E221E045EE6EE19F
:103430007CE7D6CF15968C91882319F010928902DB
:10344000D3CF81E0D1CF9093900280938F020895E3
:103450000E948612811103C080918A020895E09132
:103460008F02F0919002309729F00190F081E02DC9
:103470000995089580E008950E94281A0895E09122
:103480008F02F0919002309721F00280F381E02DBD
:1034900009950895E0918F02F0919002309739F0EC
:1034A00022E0DC012C930680F781E02D0995089538
:1034B000A3E0B0E0EEE5FAE10C94142520918D0232
:1034C00030918E0228173907A1F090938E028093D5
:1034D0008D02E0918F02F0919002309751F023E03D
:1034E00029839B838A830084F185E02DCE01019698
:1034F00009952396E2E00C943025A3E0B0E0E3E8E0
:10350000FAE10C94142520918B0230918C0228173B
:103510003907A1F090938C0280938B02E0918F0287
:10352000F0919002309751F024E029839B838A83A5
:103530000084F185E02DCE01019609952396E2E005
:103540000C94302540910001509101019A012E5FA9
:103550003F4F485F5F4F80E02417350709F4089517
:10356000F90191919F019923B9F38F5FF5CF8823DA
:1035700071F02091000130910101F9013296285F2C
:103580003F4F9191981729F0E217F307D1F780E0A8
:10359000089581E008959C01FC0132969FEF80E040
:1035A0004191461751F09F3F19F4411101C0982FE6
:1035B0008F5F8630A9F79F3F09F40895290F311DC9
:1035C00097FD3A95F90162830895FC0132960896B9
:1035D0002191261303C0DF0111971C92E817F90708
:1035E000B9F70895682F80910001909101010E9420
:1035F000CB1A0895682F80910001909101010E94DB
:10360000E51A0895E0910001F0910101329686E0FB
:10361000DF011D928A95E9F70895DC01FB011196FF
:103620009C9111978181981322C012968C911297C8
:10363000882319F0928189131AC013968C911397DD
:10364000882319F09381891312C015968C911597D0
:10365000882319F0958189130AC014969C919923A7
:1036600021F081E02481291303C080E001C081E0C2
:103670008170089508950E943A1B089581110EC02B
:1036800081E0809324016091210170912201809159
:103690002301909124010E943B1B089582E0F1CF09
:1036A00083E0809324016091210170912201809137
:1036B0002301909124010E943B1B08950E943E1B10
:1036C000089581E08093240160912101709122018D
:1036D00080912301909124010E943B1B08950E9438
:1036E000611B089591E0811101C090E09093230146
:1036F0006091210170912201809123019091240118
:103700000E943B1B0895809123010895809322011C
:1037100060912101709122018091230190912401F7
:103720000E943B1B089580912201089580932101FE
:1037300060912101709122018091230190912401D7
:103740000E943B1B089580912101089508950895DA
:103750000E94A71B0895089508950E94A61B08952E
:10376000CF930E94AB1B0E94F2110E94AC1BC0E0E1
:103770008C2F0E94CF10811105C0CF5FCC30C1F7D4
:10378000CF91089581E0FCCFCF93DF93EC010E94AD
:10379000461C8C1B9D0BDF91CF910895CF92DF9239
:1037A000EF92FF926B017C010E94521C6C197D0903
:1037B0008E099F09FF90EF90DF90CF90089585B715
:1037C000806885BF85B7806885BF08951F921FB642
:1037D0001F9211248F939F93AF93BF938091910277
:1037E000811113C08091BA029091BB02A091BC02DA
:1037F000B091BD024196A11DB11D8093BA02909374
:10380000BB02A093BC02B093BD02BF91AF919F9148
:103810008F911F901FBE1F9018958091C202843017
:1038200031F10E943B031092910288E190E020E484
:103830000FB6F894A895809360000FBE20936000A7
:1038400083B7817F846083BF83B7816083BF7894AF
:10385000889583B78E7F83BF0FB6F894A895809123
:103860006000886180936000109260000FBE089530
:103870000E9427070E944203089582E084BD93E0DE
:1038800095BD9AEF97BD80936E0008952FB7F89479
:103890008091BA029091BB02A091BC02B091BD028E
:1038A0002FBF08952FB7F8946091BA027091BB02B0
:1038B0008091BC029091BD022FBF089578941F9211
:1038C0001FB61F9211248F939F93AF93BF93809144
:1038D000BA029091BB02A091BC02B091BD020196C8
:1038E000A11DB11D8093BA029093BB02A093BC02AC
:1038F000B093BD02BF91AF919F918F911F901FBE5A
:103900001F90189587E797E7909301088093000828
:1039100088E19AE00FB6F894A895809360000FBEF6
:1039200090936000FFCF88E19AE00FB6F894A895D5
:10393000809360000FBE90936000FFCF8EE1489BA4
:1039400002C08150E1F7489BFECF0895589880E26D
:103950008A95F1F7589A0895FC013BE03A95F1F702
:1039600098E020E080E031E040E14A95F1F7880FEF
:10397000489B02C08160232742E04A95F1F700008E
:1039800040E14A95F1F7915079F790E19A95F1F776
:1039900099B132E03A95F1F7000040E14A95F1F72C
:1039A000917092272081920F90830895A1E0B0E05A
:1039B000ECEDFCE10C94102519828C017C01E60EE3
:1039C000F11C0E151F0541F481E09981911180E0F1
:1039D0002196E6E00C942C250E949E1CCE010196B7
:1039E0000E94AC1CF80181938F01EBCF509A589A3A
:1039F00008955098589AE89AE9E6F0E080818C7F23
:103A0000808308956150770B91E001C0990F6A950A
:103A1000EAF720E031E0911108C0222391F0589A92
:103A200080E28A95F1F758980895492F482339F094
:103A3000589A232740E24A95F1F79695ECCF58988B
:103A4000F9CF5898EDCFFF920F931F93CF93DF9349
:103A5000EC018C01060F111DC017D10729F4CDB759
:103A6000DEB7E5E00C942D25F9900E94A61C68E0D5
:103A70008F2D0E94021DF0CF1F920F920FB60F9252
:103A800011240F931F932F933F934F935F936F9343
:103A90007F938F939F93AF93BF93EF93FF93CF93B6
:103AA000DF930F92CDB7DEB719820E949E1CCE0124
:103AB00001960E94AC1C082F069506950695282FA6
:103AC00022952570902F9570290F922F937026952F
:103AD0002695920F982797708981982B09F05CC0E2
:103AE000043008F059C080E18A95F1F7589A509A4D
:103AF00082E08A95F1F700C0589888E0089F80011D
:103B00001124D801AD5FBE4F1696ED91FC91179729
:103B10003097A9F06091AD017091AE0114962D918E
:103B20003C911597260F371F11968D919C911297F6
:103B3000680F791F13964C9113978C910995F80192
:103B4000ED5FFE4F6381662351F02091AD0130910E
:103B5000AE0184819581820F931F0E94231D0E94D4
:103B6000A61C80E18A95F1F758985098589A80E100
:103B70008A95F1F7F801ED5FFE4F6081662351F001
:103B80002091AD013091AE0181819281820F931F0E
:103B90000E94D61C0E949E1C0F90DF91CF91FF9136
:103BA000EF91BF91AF919F918F917F916F915F91B5
:103BB0004F913F912F911F910F910F900FBE0F903A
:103BC0001F9018950F931F93CF93DF93EC010497E9
:103BD0000CF04CC0F894509A589885E08A95F1F70B
:103BE00000009C2F969595708C2F8570980F892FCB
:103BF00083709695969523E0CC0FDD1F2A95E1F70B
:103C0000980F8E01092B0E94A61C00C068E0802F2F
:103C10000E94021D80E18A95F1F75098589A489BBE
:103C20001EC087E090E048991CC0FE01ED5FFE4F8A
:103C300063816623F9F02091AD013091AE0184815A
:103C40009581820F931F0E94D61C811113C0509A38
:103C5000589A7894DF91CF911F910F91089500C0E9
:103C6000DECF019729F4509A589A789480E0F2CFE9
:103C700000C0D9CF0E949E1C80E28A95F1F7589827
:103C8000509A80E18A95F1F7CD5FDE4F6881662317
:103C900051F02091AD013091AE0189819A81820F5E
:103CA000931F0E94231D0E94A61C789481E0D2CF0E
:103CB00008959B01BA019091C2029430E9F48F708B
:103CC0008093E9009FEF8091E800915085FD06C048
:103CD00085ED8A95F1F700009111F5CF8091E8000C
:103CE00085FF0AC050E040E0C9010E945820809141
:103CF000E8008E778093E800089543E050E0BC012F
:103D000082E00E94591E089546E050E0BC0182E026
:103D10000E94591E0895CF93DF93EC010E94831BEC
:103D200048E050E0BE0181E00E94591E88E0FE019B
:103D3000A2E9B2E001900D928A95E1F7DF91CF916F
:103D400008958091C102811109C00E94E8210E945A
:103D500045228091E20084608093E20008951092F1
:103D6000C10208950E94611B81E00E94721B0895A8
:103D70006091BE0281E0611101C080E00E94501B91
:103D800008959091C20281E0943009F080E0609142
:103D9000BE020E945E1B089542E061EC81E00E9439
:103DA000642142E261EC82E00E9464219091C202AF
:103DB00081E0943009F080E06091BE020E943E1BD9
:103DC00008958091C402833009F461C030F48130D9
:103DD000D1F1823009F49EC008958A3009F48AC076
:103DE0008B3009F46FC0893009F050C08091C30254
:103DF000813209F04BC08091C7029091C8020297AE
:103E000008F044C08091E800877F8093E8008091AB
:103E1000E80082FF37C09091F3008091F200029792
:103E200031F48091F100813011F0863021F48091DD
:103E3000F1000E94861B8091E8008B778093E80058
:103E40000E94982123C08091C302813AF9F48091A5
:103E5000E800877F8093E8008091C7029091C802B4
:103E6000892B61F468E082E992E070E00E94A7206B
:103E70008091E8008B778093E800089560E090E0FF
:103E800080E0F3CF8091C2028111C1CF089580916B
:103E9000C302813AD9F78091C7029091C802892B59
:103EA000A9F78091E800877F8093E8008091E8007F
:103EB00080FFFCCF0E94831B8093F1008091E8007B
:103EC0008E77BCCF8091C302813201F78091C70207
:103ED0009091C802892BD1F68091E800877F80936A
:103EE000E8000E9498218091C5020E94721B0E94E6
:103EF000270708958091C302813241F68091E8003E
:103F0000877F8093E8000E9498218091C6020E94DA
:103F1000961B08958091C302813A09F0B7CF809132
:103F2000E800877F8093E8008091E80080FFFCCF65
:103F30000E94A31BC1CF84B7877F84BF0FB6F894BC
:103F4000A895809160008861809360001092600065
:103F50000FBE80E890E00FB6F894809361009093D4
:103F600061000FBE0E946F1B08950E94E8210E940D
:103F70004522E2EEF0E080818460808378940E94A4
:103F8000C424089585E291E00E94231A0895809147
:103F9000C202853031F48091C202853019F00E944E
:103FA000381C08950E940D1C0E94B01B882399F3B1
:103FB0008091C002882379F30E9442200E94270743
:103FC000EACF08959A014091C9025091CA020E9415
:103FD000EA1F0895492F55274330510519F168F418
:103FE0004130510509F444C04230510509F445C03F
:103FF00090E080E050E040E025C04132510549F1B9
:1040000042325105A9F784E490E046E653E0611599
:104010007105C1F08BE790E04BEE52E06130710525
:1040200089F0E6CF99278130910581F0009729F03A
:104030000297F1F6ECE5F2E002C0EAE9F2E08491E1
:1040400090E0AF01F901518340830895EAE8F2E07E
:10405000F6CF89E090E040EB52E06115710591F3F5
:1040600089E090E049EC52E06130710559F3C0CF2E
:1040700082E190E049ED52E0E5CF8BE390E04EE93C
:1040800052E0E0CF80E189BD82E189BD09B400FE44
:10409000FDCF8091D8008F7D8093D8008091E00083
:1040A00082608093E0008091E00081FDFCCF089564
:1040B000AF92BF92CF92DF92FF920F931F93CF9355
:1040C000DF936C01EB018A010E94B721F82E811168
:1040D00023C00115110539F0F80180819181C81BB9
:1040E000D90BC80ED91EB12CA12C2097A9F0809114
:1040F000E80085FD22C08091E8008E778093E8007B
:1041000001151105A1F0F80180819181A80EB91E59
:10411000B182A08285E0F82E8F2DDF91CF911F9183
:104120000F91FF90DF90CF90BF90AF9008950E94C5
:10413000B7218823D1F2F82EEFCFF60181916F01DC
:104140008093F1002197FFEFAF1ABF0ACECFFC0199
:104150008091C9029091CA0286179707A0F0611555
:10416000710529F49091E8009E779093E80090E023
:104170006115710551F4911108C08091E80082FF2A
:1041800034C080E00895BC01F2CF8091C202882340
:10419000C1F18530C1F18091E80083FD30C080918C
:1041A000E80082FDEACF8091E80080FFE1CF8091B6
:1041B000F3002091F200382F6115710519F02830B5
:1041C000310558F091E02830310509F090E0209158
:1041D000E8002E772093E800CBCF81918093F10007
:1041E000615071092F5F3F4FE7CF8091C202882352
:1041F00041F0853041F08091E80083FFBECF81E03F
:10420000089582E0089583E00895FC018091C90239
:104210009091CA0286179707A0F06115710529F4DD
:104220008091E8008E778093E80090E06115710539
:1042300051F4911108C08091E80082FF35C080E000
:104240000895BC01F2CF8091C2028823C9F1853064
:10425000C9F18091E80083FD31C08091E80082FDC2
:10426000EACF8091E80080FFE1CF8091F3002091B8
:10427000F200382F6115710519F02830310558F01A
:1042800091E02830310509F090E08091E8008E77C8
:104290008093E800CBCF84918093F10031966150F8
:1042A00071092F5F3F4FE6CF8091C202882341F012
:1042B000853041F08091E80083FFBDCF81E0089513
:1042C00082E0089583E00895982F973028F08F704A
:1042D0008093E90081E008959093E900242F762FE0
:1042E00050E0981731F07091EC002091ED00509162
:1042F000F00021FD02C09F5FE8CF3091EB003E7FD0
:104300003093EB003091ED003D7F3093ED00309124
:10431000EB0031603093EB007093EC002093ED00E4
:104320005093F0002091EE0027FDE5CF80E0089546
:104330008091C30287FF13C08091E80082FF06C00E
:104340008091E8008B778093E80004C08091C202DE
:104350008111F2CF08958091C2028823D9F3809110
:10436000E80080FFF8CF8091E8008E77ECCF2091B5
:10437000E4003091E50095E6A9012091EC00822F40
:10438000817020FF06C08091E80080FF06C080E0B9
:1043900008952091E80022FD1AC08091C20288236E
:1043A00089F0853089F08091EB0085FD0FC0209168
:1043B000E4003091E50042175307F9F29150E1F61D
:1043C00084E0089582E0089583E0089581E00895EF
:1043D0000E9457220E945F22E0EEF0E0808181601F
:1043E0008083E8EDF0E080818F77808319BCA7EDB2
:1043F000B0E08C918E7F8C9380818F7E8083109231
:10440000C10208950F931F93CF93DF930E94572209
:104410000E945F22C8EDD0E088818F7788838881F1
:104420008068888388818F7D888319BC1092C2023E
:104430001092BE021092C0021092BF0200EE10E075
:10444000F80180818B7F808388818160888342E04E
:1044500060E080E00E946421E1EEF0E080818E7FE8
:104460008083E2EEF0E080818160808380818860DB
:104470008083F80180818E7F80838881806188833A
:10448000DF91CF911F910F910895E8EDF0E08081C9
:104490008F7E8083E7EDF0E080818160808384E01F
:1044A00082BF81E08093C1020E9402220895E8ED5C
:1044B000F0E080818E7F80831092E2000895109258
:1044C000DA001092E10008951F920F920FB60F923A
:1044D00011242F933F934F935F936F937F938F9309
:1044E0009F93AF93BF93EF93FF938091E10082FF7F
:1044F0000BC08091E20082FF07C08091E1008B7FBA
:104500008093E1000E94C3248091DA0080FF19C0EB
:104510008091D80080FF15C08091DA008E7F809353
:10452000DA008091D90080FF96C080E189BD82E1E8
:1045300089BD09B400FEFDCF81E08093C2020E94D4
:10454000A11E8091E10080FF19C08091E20080FFF0
:1045500015C08091E2008E7F8093E2008091E2009E
:1045600080618093E2008091D80080628093D800BF
:1045700019BC85E08093C2020E94B81E8091E100C0
:1045800084FF2BC08091E20084FF27C080E189BDB9
:1045900082E189BD89B5982F917080FFFBCF809112
:1045A000D8008F7D8093D8008091E1008F7E80932A
:1045B000E1008091E2008F7E8093E2008091E20032
:1045C00081608093E2008091BE02882309F449C093
:1045D00084E08093C2020E94C11E8091E10083FFAB
:1045E00029C08091E20083FF25C08091E100877F90
:1045F0008093E10082E08093C2021092BE0280911B
:10460000E1008E7F8093E1008091E2008E7F8093B5
:10461000E2008091E20080618093E20042E060E08D
:1046200080E00E9464218091F00088608093F00017
:104630000E94B21EFF91EF91BF91AF919F918F9118
:104640007F916F915F914F913F912F910F900FBE8E
:104650000F901F90189519BC1092C2020E94AF1EB5
:1046600070CF8091E30087FD93E09093C202B3CFB7
:104670001F920F920FB60F9211242F933F934F93D7
:104680005F936F937F938F939F93AF93BF93CF93DA
:10469000DF93EF93FF93D091E900DF708091EC00FE
:1046A000C82FC17080FDC0E81092E9008091F00031
:1046B000877F8093F00078940E947C231092E90019
:1046C0008091F00088608093F000CD2BCF70C09374
:1046D000E900FF91EF91DF91CF91BF91AF919F9151
:1046E0008F917F916F915F914F913F912F910F909B
:1046F0000FBE0F901F901895AAE2B0E0E2E8F3E237
:104700000C94132583EC92E02091F100FC0121939D
:10471000CF01F2E08B3C9F07B9F70E94E11E809128
:10472000E80083FF1EC18091C3029091C4029A30B9
:1047300008F017C1E92FF0E0E251FA4D0C94FE2485
:10474000803899F0823809F00CC18091C7028F70CF
:10475000873008F006C18093E9008091EB0085FB6B
:10476000882780F91092E90006C08091BF029091DD
:10477000C002911182609091E800977F9093E800C9
:104780008093F1001092F1008091E8008E77E5C0EF
:10479000882309F4D3C0823009F0E3C08091C502B8
:1047A0008111D6C08091C7028F702FEF280F26305D
:1047B00008F0D7C08093E9002091EB0020FFC8C02B
:1047C000933031F48091EB0080628093EB00C0C0A5
:1047D0009091EB0090619093EB0021E030E001C0FC
:1047E000220F8A95EAF72093EA001092EA0080915E
:1047F000EB008860EACF8111B4C01091C5021F7729
:104800008091E3008078812B8093E3008091E80021
:10481000877F8093E8000E9498218091E80080FFC4
:10482000FCCF8091E30080688093E30082E0111167
:1048300083E08093C20295C08058823008F091C016
:104840008091C5029091C6028C3D23E09207A1F5AC
:1048500083E08A838AE289834FB7F894DE01139656
:1048600020E03EE051E2E32FF0E050935700E49166
:1048700020FF03C0E295EF703F5FEF708E2F90E056
:10488000EA30C0F0C7968D939D932F5F243159F77E
:104890004FBF8091E800877F8093E8006AE270E074
:1048A000CE0101960E94A7208091E8008B7780932B
:1048B000E80057C0C096E7CF6091C7027091C80268
:1048C000AE014F5F5F4F0E94E21FBC01892B09F4CC
:1048D00048C09091E800977F9093E80089819A8181
:1048E0000E940521E1CF8038E1F58091E800877FC3
:1048F0008093E8008091BE028093F10045CF811142
:1049000030C09091C502923060F58091E800877FB9
:104910008093E8009093BE020E9498218091BE028D
:10492000882311F084E005C08091E30087FDFACF71
:1049300081E08093C2020E94CC1E13C08091C50208
:10494000813079F481E0933009F080E08093C002F7
:104950001092E9008091E800877F8093E8000E9430
:1049600098218091E80083FF0AC08091E800877F4A
:104970008093E8008091EB0080628093EB00AA9620
:10498000E3E00C942F250895CF938091C2028823F1
:10499000A1F0C091E900CF709091EC00892F817057
:1049A00090FD80E8C82B1092E9008091E80083FD1B
:1049B0000E947C23CF70C093E900CF9108950E949C
:1049C000E8211092C20208958091E300881F882791
:1049D000881F089597FB072E16F4009407D077FDE3
:1049E00009D00E943B2507FC05D03EF490958195A7
:1049F0009F4F0895709561957F4F0895EE0FFF1FAB
:104A00000590F491E02D09942F923F924F925F927E
:104A10006F927F928F929F92AF92BF92CF92DF92CE
:104A2000EF92FF920F931F93CF93DF93CDB7DEB733
:104A3000CA1BDB0B0FB6F894DEBF0FBECDBF0994C7
:104A40002A88398848885F846E847D848C849B841E
:104A5000AA84B984C884DF80EE80FD800C811B812C
:104A6000AA81B981CE0FD11D0FB6F894DEBF0FBE5B
:104A7000CDBFED010895AA1BBB1B51E107C0AA1FC2
:104A8000BB1FA617B70710F0A61BB70B881F991FEF
:104A90005A95A9F780959095BC01CD010895FB0129
:104AA000DC0104C08D910190801921F441505040E7
:104AB000C8F7881B990B0895FB01DC0102C0019027
:104AC0000D9241505040D8F70895F999FECF92BD0C
:104AD00081BDF89A992780B50895A8E1B0E042E039
:104AE00050E00C94A925DC01A40FB51F41505040A3
:104AF00048F0CB01840F951F2E910E9484254150D0
:104B00005040D0F70895262FF999FECF92BD81BD70
:104B1000F89A019700B4021639F01FBA20BD0FB6FB
:104B2000F894FA9AF99A0FBE08950396272F0E94D7
:104B300084250E948325252F0E948425242F0C94F0
:104B400084250196272F0E9484250C948325DC015F
:104B5000CB01FC01F999FECF06C0F2BDE1BDF89A88
:104B6000319600B40D9241505040B8F70895F89432
:104B7000FFCF210521055F055F05C305DF05500552
:104B80005005E4055506640664067316E7167B16A1
:104B9000451649167F164D1683168F165916E016C0
:104BA0005D16931661169716BF1665169B16C616E8
:104BB0006B16A116A9165116871655168B166F1669
:104BC000A516B516CF16DE163F167716EE16FC198B
:104BD000021AEB19F619081A0E1A141AA023C82380
:104BE000B124C823B124FB231C24B12473247F24C3
:104BF0002C0201000000010000000000000006017E
:104C000000000004070000000000002808503C07D6
:104C10001400000100931B8B1E581E841E7D1EE293
:104C200000E900EA00B500B600B700CD008301CC72
:104C3000008A019201940121022302240225022606
:104C40000227022A02B300B4006F0070009F01CB5C
:104C5000019F02A002818283E200E900EA00B50020
:104C6000B600B700CD008301CC008A019201940107
:104C70002102230224022502260227022A02B3006F
:104C8000B4006F0070009F01CB019F02A0028182DF
:104C900083946697C63435F6F731333236560200C0
:00000001FF
